:100000000C9462000C948A000C948A000C948A0070
:100010000C948A000C948A000C948A000C948A0038
:100020000C948A000C948A000C948A000C948A0028
:100030000C948A000C948A000C948A000C948A0018
:100040000C941C030C948A000C94EA020C94C402D5
:100050000C948A000C948A000C948A000C948A00F8
:100060000C948A000C948A000000000024002700F1
:100070002A0000000000250028002B0000000000DE
:1000800023002600290004040404040404040202DA
:100090000202020203030303030301020408102007
:1000A0004080010204081020010204081020000012
:1000B0000008000201000003040700000000000027
:1000C0000000660311241FBECFEFD8E0DEBFCDBF16
:1000D00011E0A0E0B1E0E8E7FBE002C005900D927E
:1000E000A03EB107D9F722E0A0EEB1E001C01D9219
:1000F000A93FB207E1F710E0C2E6D0E004C02197C3
:10010000FE010E94AF05C136D107C9F70E94F10375
:100110000C94BA050C940000CF92DF92EF92FF92FC
:100120000F931F93CF93DF936C017A018B01C0E093
:10013000D0E0CE15DF0589F0D8016D918D01D60193
:10014000ED91FC910190F081E02DC6010995892B7C
:1001500011F47E0102C02196ECCFC701DF91CF914F
:100160001F910F91FF90EF90DF90CF900895FC01C9
:10017000918D828D981761F0828DDF01A80FB11DDE
:100180005D968C91928D9F5F9F73928F90E0089502
:100190008FEF9FEF0895FC01918D828D981731F0BC
:1001A000828DE80FF11D858D90E008958FEF9FEF10
:1001B0000895FC01918D228D892F90E0805C9F4FE6
:1001C000821B91098F739927089589EE91E00E940F
:1001D000D90021E0892B09F420E0822F0895FC0149
:1001E000848DDF01A80FB11DA35ABF4F2C91848DC0
:1001F00090E001968F739927848FA689B7892C93F5
:10020000A089B1898C9180648C93938D848D98138F
:1002100006C00288F389E02D80818F7D8083089558
:10022000EF92FF920F931F93CF93DF93EC0181E046
:10023000888F9B8D8C8D981305C0E889F989808102
:1002400085FD24C0F62E0B8D10E00F5F1F4F0F733E
:100250001127E02E8C8DE8120CC00FB607FCFACFE8
:10026000E889F989808185FFF5CFCE010E94EF00F2
:10027000F1CF8B8DFE01E80FF11DE35AFF4FF082A5
:100280000B8FEA89FB898081806207C0EE89FF8934
:100290006083E889F98980818064808381E090E0CF
:1002A000DF91CF911F910F91FF90EF900895CF9321
:1002B000DF93EC01888D8823C9F0EA89FB8980816E
:1002C00085FD05C0A889B9898C9186FD0FC00FB640
:1002D00007FCF5CF808185FFF2CFA889B9898C9181
:1002E00085FFEDCFCE010E94EF00E7CFDF91CF91E8
:1002F000089580E090E0892B29F00E94E5008111AB
:100300000C9400000895833081F028F4813099F036
:100310008230A1F008958730A9F08830B9F0843098
:10032000D1F4809180008F7D03C0809180008F7711
:1003300080938000089584B58F7702C084B58F7D47
:1003400084BD08958091B0008F7703C08091B00084
:100350008F7D8093B0000895CF93DF93282F30E0F6
:10036000F901E255FF4F8491F901E656FF4FD49110
:10037000F901EA57FF4FC491CC2391F081110E94FB
:100380008301EC2FF0E0EE0FFF1FE458FF4FA59123
:10039000B491EC91ED2381E090E021F480E002C083
:1003A00080E090E0DF91CF9108951F93CF93DF938A
:1003B000282F30E0F901E255FF4F8491F901E6560C
:1003C000FF4FD491F901EA57FF4FC491CC23C9F0F4
:1003D000162F81110E948301EC2FF0E0EE0FFF1F1A
:1003E000EE58FF4FA591B4918FB7F894111105C045
:1003F0009C91ED2FE095E92302C0EC91ED2BEC935D
:100400008FBFDF91CF911F910895CF93DF9390E03D
:10041000FC01E656FF4F2491FC01EA57FF4F8491FF
:10042000882361F190E0880F991FFC01E859FF4F84
:10043000C591D491FC01EE58FF4FA591B491611183
:1004400009C09FB7F8948881209582238883EC9116
:100450002E230BC0623061F49FB7F8943881822F4D
:10046000809583238883EC912E2B2C939FBF06C00D
:100470008FB7F894E8812E2B28838FBFDF91CF911F
:1004800008953FB7F8948091E5019091E601A0911D
:10049000E701B091E80126B5A89B05C02F3F19F0F0
:1004A0000196A11DB11D3FBFBA2FA92F982F8827F4
:1004B000820F911DA11DB11DBC01CD0142E0660F4F
:1004C000771F881F991F4A95D1F708958F929F92A1
:1004D000AF92BF92CF92DF92EF92FF920E944102C1
:1004E0004B015C0184EFC82EDD24D394E12CF12C68
:1004F0000E944102DC01CB0188199909AA09BB09B4
:10050000883E9340A105B10558F021E0C21AD108F8
:10051000E108F10888EE880E83E0981EA11CB11C4A
:10052000C114D104E104F10419F7FF90EF90DF90BA
:10053000CF90BF90AF909F908F90089542E050E091
:100540006EE171E089EE91E00C948C00CF93DF9323
:10055000009779F0FC0101900020E9F73197AF0195
:10056000481B590BBC0189EE91E00E948C00EC0104
:1005700002C0C0E0D0E00E949E028C0F9D1FDF9160
:10058000CF9108950E94B5051F920F920FB60F925A
:1005900011242F933F934F935F936F937F938F9388
:1005A0009F93AF93BF93EF93FF9389EE91E00E94E7
:1005B000EF00FF91EF91BF91AF919F918F917F914C
:1005C0006F915F914F913F912F910F900FBE0F90C0
:1005D0001F9018951F920F920FB60F9211242F9310
:1005E0008F939F93EF93FF93E091F901F091FA01BC
:1005F0008081E091FF01F091000282FD12C09081A4
:10060000809102028F5F8F7320910302821751F055
:10061000E0910202F0E0E751FE4F958F80930202D5
:1006200001C08081FF91EF919F918F912F910F9049
:100630000FBE0F901F9018951F920F920FB60F923A
:1006400011242F933F938F939F93AF93BF938091E8
:10065000E1019091E201A091E301B091E4013091B8
:10066000E00123E0230F2D3720F40196A11DB11DD9
:1006700005C026E8230F0296A11DB11D2093E001BD
:100680008093E1019093E201A093E301B093E40130
:100690008091E5019091E601A091E701B091E80118
:1006A0000196A11DB11D8093E5019093E601A093F1
:1006B000E701B093E801BF91AF919F918F913F9176
:1006C0002F910F900FBE0F901F901895E9EEF1E05B
:1006D0001382128288EE93E0A0E0B0E084839583D9
:1006E000A683B78382E191E09183808385EC90E0DB
:1006F0009587848784EC90E09787868780EC90E0EC
:10070000918B808B81EC90E0938B828B82EC90E0DC
:10071000958B848B86EC90E0978B868B118E128E56
:10072000138E148EE6E8F2E04FEF5FEFBA014083DC
:1007300051836283738310861186128613868FEF2E
:1007400099ECAAE9BBE3808B918BA28BB38B808F52
:10075000918FA28FB38F80A391A3A2A3B3A380A7ED
:1007600091A7A2A7B3A780AB91ABA2ABB3AB40AFAD
:1007700051AF62AF73AF8FEF90E09093C702809359
:10078000C6024093CA025093CB026093CC0270938E
:10079000CD024093D2025093D3026093D40270935F
:1007A000D5021092DA021092DB0282E08093EB0213
:1007B0001092EC021092ED021092EE021092EF02F3
:1007C0001092F0021092F1021092F2021092F402D2
:1007D0001092F3021092F6021092F5021092DC02CF
:1007E0000895789484B5826084BD84B5816084BDA9
:1007F00085B5826085BD85B5816085BD80916E00BF
:10080000816080936E0010928100809181008260EF
:10081000809381008091810081608093810080912C
:1008200080008160809380008091B100846080931B
:10083000B1008091B00081608093B00080917A0017
:10084000846080937A0080917A00826080937A003D
:1008500080917A00816080937A0080917A0080682C
:1008600080937A001092C100E091F901F091FA01B1
:1008700082E08083E091F501F091F6011082E09131
:10088000F701F091F8018FEC808310920102E09162
:10089000FD01F091FE0186E08083E091FB01F09183
:1008A000FC01808180618083E091FB01F091FC017B
:1008B000808188608083E091FB01F091FC01808160
:1008C00080688083E091FB01F091FC0180818F7D45
:1008D000808361E083E00E94050261E084E00E9481
:1008E000050261E085E00E94050261E086E00E9469
:1008F000050260E082E00E94050260E087E00E945D
:10090000050260E08BE00E94050260E08CE00E943E
:10091000050261E088E00E94050261E089E00E9432
:10092000050261E08AE00E94050261E088E00E9421
:10093000D50161E089E00E94D50161E08AE00E9472
:10094000D50182E00E94AC01892B49F40E94660225
:1009500087E00E94AC01892B09F478C03CC060E0BC
:1009600088E00E94D50161E089E00E94D50161E044
:100970008AE00E94D50161E084E00E94D50160E038
:1009800083E00E94D50160E085E00E94D50160E02F
:1009900086E00E94D50181E291E00E94A60280E4F7
:1009A00091E00E94A60283E491E00E94A6028DE4F9
:1009B00091E00E94A60280E091E00E94A60285E5F7
:1009C00091E00E94A6020E949E0282E00E94AC0179
:1009D000892BD9F7BBCF60E089E00E94D50161E0A7
:1009E00088E00E94D50161E08AE00E94D50161E0C3
:1009F00085E00E94D50160E084E00E94D50160E0BE
:100A000083E00E94D50160E086E00E94D50181E785
:100A100091E00E94A60280E491E00E94A60283E495
:100A200091E00E94A6028DE491E00E94A60280E07F
:100A300091E00E94A60285E591E00E94A6020E9434
:100A40009E0287E00E94AC01892BD9F70E946602C2
:100A50008BE00E94AC01892BD9F161E088E00E9413
:100A6000D50161E089E00E94D50160E08AE00E9442
:100A7000D50161E083E00E94D50160E085E00E943D
:100A8000D50160E084E00E94D50160E086E00E942C
:100A9000D50187E991E00E94A60280E491E00E94DE
:100AA000A60283E491E00E94A6028DE491E00E94F8
:100AB000A60280E091E00E94A60285E591E00E94F6
:100AC000A6020E949E028BE00E94AC01892BD9F7FE
:100AD0000E9466028CE00E94AC01892BD9F160E093
:100AE00088E00E94D50160E089E00E94D50160E0C5
:100AF0008AE00E94D50160E083E00E94D50160E0B9
:100B000085E00E94D50160E084E00E94D50161E0AB
:100B100086E00E94D5018FEB91E00E94A60280E45E
:100B200091E00E94A60283E491E00E94A6028DE477
:100B300091E00E94A60280E091E00E94A60285E575
:100B400091E00E94A6020E949E028BE00E94AC01EE
:100B5000892BD9F70E9466020E947901F2CEEE0F2E
:100B6000FF1F0590F491E02D099481E090E0F89446
:080B70000C94BA05F894FFCFC4
:100B78002B323333343335333435343335000000D6
:100B8800000010018C00D900B700CB0057010D0AF6
:100B980000497427732061204C696E652D6C696E5D
:100BA80065206661756C742070726F626C656D008B
:100BB80041540041542B434D47463D310041542B8D
:100BC800434D4753004D65737361676553656E7494
:100BD800207375636365737366756C6C79203A2945
:100BE80000497427732061204C696E652D6C696E0D
:100BF800652067726F756E64206661756C7420700D
:100C0800726F626C656D00497427732061205369A7
:100C18006E676C652D6C696E652067726F756E64A2
:100C2800206661756C742070726F626C656D004926
:100C38007427732061204C696E652D6C696E652080
:100C480067726F756E642070726F626C656D0000FC
:00000001FF
