:100000000C9462000C948A000C948A000C948A0070
:100010000C948A000C948A000C948A000C948A0038
:100020000C948A000C948A000C948A000C948A0028
:100030000C948A000C948A000C948A000C948A0018
:100040000C94BD020C948A000C948A000C948A00D3
:100050000C948A000C948A000C948A000C948A00F8
:100060000C948A000C948A000000000024002700F1
:100070002A0000000000250028002B0000000000DE
:1000800023002600290004040404040404040202DA
:100090000202020203030303030301020408102007
:1000A0004080010204081020010204081020000012
:1000B0000008000201000003040700000000000027
:1000C0000000CC0311241FBECFEFD8E0DEBFCDBFB0
:1000D00011E0A0E0B1E0E0EFF7E002C005900D9282
:1000E000A031B107D9F721E0A0E1B1E001C01D9234
:1000F000A133B207E1F710E0C2E6D0E004C02197D7
:10010000FE010E94EB03C136D107C9F70E94070325
:100110000C94F6030C940000CF92DF92EF92FF92C2
:100120000F931F93CF93DF936C017A018B01C0E093
:10013000D0E0CE15DF0589F0D8016D918D01D60193
:10014000ED91FC910190F081E02DC6010995892B7C
:1001500011F47E0102C02196ECCFC701DF91CF914F
:100160001F910F91FF90EF90DF90CF900895833013
:1001700081F028F4813099F08230A1F00895873021
:10018000A9F08830B9F08430D1F4809180008F7D5F
:1001900003C0809180008F7780938000089584B59C
:1001A0008F7702C084B58F7D84BD08958091B000A3
:1001B0008F7703C08091B0008F7D8093B000089549
:1001C000CF93DF93282F30E0F901E255FF4F849160
:1001D000F901E656FF4FD491F901EA57FF4FC49158
:1001E000CC2391F081110E94B700EC2FF0E0EE0FCC
:1001F000FF1FE458FF4FA591B491EC91ED2381E0EE
:1002000090E021F480E002C080E090E0DF91CF91A7
:1002100008951F93CF93DF93282F30E0F901E25523
:10022000FF4F8491F901E656FF4FD491F901EA5747
:10023000FF4FC491CC23C9F0162F81110E94B70043
:10024000EC2FF0E0EE0FFF1FEE58FF4FA591B49199
:100250008FB7F894111105C09C91ED2FE095E9231B
:1002600002C0EC91ED2BEC938FBFDF91CF911F91EA
:100270000895CF93DF9390E0FC01E656FF4F249161
:10028000FC01EA57FF4F8491882361F190E0880FC9
:10029000991FFC01E859FF4FC591D491FC01EE581C
:1002A000FF4FA591B491611109C09FB7F89488815F
:1002B000209582238883EC912E230BC0623061F459
:1002C0009FB7F8943881822F809583238883EC919F
:1002D0002E2B2C939FBF06C08FB7F894E8812E2B4E
:1002E00028838FBFDF91CF910895CF93DF93EC01E7
:1002F00060E08E810E94090161E08E810E94090107
:1003000060E08E810E9409018BE891E00197F1F78E
:10031000DF91CF910895CF92DF92EF92FF920F93EA
:100320001F93CF93DF937C016C0187E0C80ED11C33
:10033000C0E0D0E0062F10E0B8010C2E02C0759589
:1003400067950A94E2F76170F60181916F010E944E
:1003500009012196C430D10579F7C701DF91CF910A
:100360001F910F91FF90EF90DF90CF900C9475014B
:10037000CF92DF92EF92FF920F931F93CF93DF9371
:10038000EC01F62E642F8C810E9409018D818F3F34
:1003900019F060E00E9409018F850F2D10E084FFA5
:1003A00025C06E0187E0C80ED11CE12CF12CB801EC
:1003B0000E2C02C0759567950A94E2F76170F601FC
:1003C00081916F010E940901FFEFEF1AFF0A88E097
:1003D000E816F10461F7CE01DF91CF911F910F91E3
:1003E000FF90EF90DF90CF900C947501B80184E0FE
:1003F000759567958A95E1F7CE010E948B016F2D67
:10040000CE01DF91CF911F910F91FF90EF90DF9080
:10041000CF900C948B01EF92FF920F931F93CF9389
:10042000DF93EC01623018F08F8588608F876B8BCB
:100430001C8A80E48D8B80E18E8B80E58F8B61E060
:100440008C810E9439018D818F3F19F061E00E94FB
:10045000390161E08E810E9439017E0187E0E80E5A
:10046000F11C00E010E08F8584FD03C084E090E083
:1004700002C088E090E0081719074CF461E0F7012A
:1004800081917F010E9439010F5F1F4FECCF8BE3F9
:100490009DE00197F1F760E08C810E94090160E026
:1004A0008E810E9409018D818F3F19F060E00E94CA
:1004B00009016F8564FD1DC063E0CE010E948B01C0
:1004C0000BE416E4C8010197F1F763E0CE010E9446
:1004D0008B01C8010197F1F763E0CE010E948B0107
:1004E00083E592E00197F1F762E0CE010E948B0173
:1004F00019C0606240E0CE010E94B8018BE496E42E
:100500000197F1F76F85606240E0CE010E94B8016B
:1005100083E592E00197F1F76F85606240E0CE01DC
:100520000E94B8016F85606240E0CE010E94B80170
:1005300084E0888B40E06CE0CE010E94B80140E08E
:1005400061E0CE010E94B8018BE39FE10197F1F7D2
:1005500082E0898B40E066E0CE01DF91CF911F9170
:100560000F91FF90EF900C94B80141E00E94B80108
:1005700081E090E008950E94F1031F920F920FB660
:100580000F9211242F933F938F939F93AF93BF9319
:100590008091150190911601A0911701B091180159
:1005A0003091140123E0230F2D3720F40196A11D73
:1005B000B11D05C026E8230F0296A11DB11D209391
:1005C00014018093150190931601A0931701B09325
:1005D00018018091100190911101A0911201B09128
:1005E00013010196A11DB11D80931001909311017B
:1005F000A0931201B0931301BF91AF919F918F917E
:100600003F912F910F900FBE0F901F9018957894E7
:1006100084B5826084BD84B5816084BD85B5826007
:1006200085BD85B5816085BD80916E0081608093B8
:100630006E00109281008091810082608093810021
:100640008091810081608093810080918000816031
:10065000809380008091B10084608093B10080918C
:10066000B00081608093B00080917A0084608093B4
:100670007A0080917A00826080937A0080917A007B
:10068000816080937A0080917A00806880937A00FC
:100690001092C10060E08EE00E94390160E08FE0BE
:1006A0000E94390160E080E10E94390161E087E049
:1006B0000E94390161E086E00E94390161E085E035
:1006C0000E94390162E089E191E00E940B0247E05B
:1006D00050E068E071E089E191E00E948C00C0E0A8
:1006E000D0E08EE00E94E000019751F48FE00E947C
:1006F000E000019779F080E10E94E000019751F05D
:100700008EE00E94E000019761F48FE00E94E0001B
:10071000892B11F461E02FC080E10E94E000892B59
:10072000C9F380E10E94E000019729F48EE00E9465
:10073000E000892BA9F08FE00E94E0000197D1F43E
:1007400080E10E94E000892BA9F48EE00E94E00085
:10075000892B81F460E087E00E94090161E00FC00D
:1007600060E087E00E94090160E086E00E940901E4
:1007700061E009C060E087E00E94090160E086E076
:100780000E94090160E085E00E940901209709F4B8
:10079000A8CF0E940000A5CFE9E1F1E01382128208
:1007A00084E091E0918380838DE084838FEF858363
:1007B0008CE086838BE087838AE0808788E081876E
:1007C00087E082871386148615861686178661E071
:1007D000CF010C940B02EE0FFF1F0590F491E02D5A
:1007E000099481E090E0F8940C94F603F894FFCF1C
:1007F00000000000B5028C0077656C636F6D6500CA
:00000001FF
